:100000000C9462000C9473070C944C070C948A00B7
:100010000C948A000C948A000C948A000C948A0038
:100020000C948A000C948A000C948A000C948A0028
:100030000C948A000C948A000C948A000C948A0018
:100040000C9402070C948A000C948A000C948A0089
:100050000C948A000C948A000C948A000C948A00F8
:100060000C949A070C948A000000000024002700DA
:100070002A0000000000250028002B0000000000DE
:1000800023002600290004040404040404040202DA
:100090000202020203030303030301020408102007
:1000A0004080010204081020010204081020000012
:1000B0000008000201000003040700000000000027
:1000C0000000B90811241FBECFEFD8E0DEBFCDBFBE
:1000D00022E0A6E9B1E001C01D92A239B207E1F722
:1000E00011E0A0E0B1E0E8EAFEE102C005900D9267
:1000F000A639B107D9F710E0C2E6D0E004C02197D5
:10010000FE010E945A0DC136D107C9F70E94D908D5
:100110000C94520F0C940000833081F028F481304D
:1001200099F08230A9F008958730A9F08830C9F09D
:100130008430B1F4809180008F7D03C08091800075
:100140008F7780938000089584B58F7784BD08955C
:1001500084B58F7DFBCF8091B0008F778093B00006
:1001600008958091B0008F7DF9CFCF93DF93282F32
:1001700030E0F901E255FF4F8491F901E656FF4F57
:10018000D491F901EA57FF4FC491CC23A1F081111A
:100190000E948C00EC2FF0E0EE0FFF1FE458FF4FA1
:1001A000A591B491EC91ED2381E090E009F480E019
:1001B000DF91CF91089580E090E0FACF1F93CF9325
:1001C000DF93282F30E0F901E255FF4F8491F901C8
:1001D000E656FF4FD491F901EA57FF4FC491CC2363
:1001E000A9F0162F81110E948C00EC2FF0E0EE0F89
:1001F000FF1FEE58FF4FA591B4918FB7F894EC9183
:10020000111108C0D095DE23DC938FBFDF91CF9111
:100210001F910895DE2BF8CFCF93DF9390E0FC0180
:10022000E656FF4F24918A579F4FFC018491882303
:10023000D1F090E0880F991FFC01E859FF4FA5917C
:10024000B491FC01EE58FF4FC591D491623071F426
:100250009FB7F8943C91822F809583238C93E881FB
:100260002E2B28839FBFDF91CF9108958FB7F894ED
:10027000EC912E2B2C938FBFF6CF3FB7F894809143
:10028000720290917302A0917402B091750226B52A
:10029000A89B05C02F3F19F00196A11DB11D3FBFBE
:1002A000BA2FA92F982F8827BC01CD01620F711D8D
:1002B000811D911D42E0660F771F881F991F4A9587
:1002C000D1F708958F929F92AF92BF92CF92DF9213
:1002D000EF92FF924B015C010E943D016B017C019A
:1002E0000E943D016C197D098E099F09683E73408B
:1002F00081059105A8F321E0821A9108A108B108AF
:1003000088EEC80E83E0D81EE11CF11C8114910414
:10031000A104B10429F7FF90EF90DF90CF90BF9038
:10032000AF909F908F9008950F931F93CF9382E08B
:100330000E94B5008C01C1E0892B09F4C0E0C09394
:10034000980183E00E94B50041E0009709F440E085
:100350006091970150919601C61302C04517E9F0CC
:100360002091690230916A026623D9F0552359F130
:10037000012B59F5892BD9F48091690290916A0279
:1003800097FF04C010926A0210926902C09397010D
:100390004093960181E080936B02CF911F910F9162
:1003A0000895552359F0012B59F4892B29F72F5F14
:1003B0003F4F30936A0220936902DECF012BA9F7E9
:1003C000892BD1F204C0012BA9F6892BA9F6215063
:1003D0003109EFCF089508950895AF92BF92CF925B
:1003E000DF92EF92FF920F931F93CF93DF936C01F5
:1003F0007B018B01040F151FEB015E01AE18BF08D6
:10040000C017D10759F06991D601ED91FC91019087
:10041000F081E02DC6010995892B79F7C501DF919F
:10042000CF911F910F91FF90EF90DF90CF90BF90F1
:10043000AF90089508952091DA01260F3327331FD6
:1004400021323105ECF420912302FC0190E080E0A0
:10045000243069F082E00895A091DA012191AC0185
:1004600046545E4FA40FB52FB11D2C9301968617ED
:1004700098F38091DA01680F6093DA0180E00895C3
:1004800081E008951092230281E08093220210926D
:10049000FD0161E082E10E94DE0061E083E10E94F3
:1004A000DE00E9EBF0E080818E7F808380818D7FAC
:1004B000808388E48093B80085E48093BC0008952D
:1004C000CF93DF9391E09093B9018823B9F0C09165
:1004D000B800D091BA008091BC008A7B8093BC00A8
:1004E00060E082E10E94DE0060E083E10E94DE00C5
:1004F0000E944202D093BA00C093B800DF91CF911E
:1005000008950895E091520280915102E81730F465
:10051000F0E0E756FE4F808190E008958FEF9FEF67
:10052000089590915202809151022FEF3FEF98175A
:1005300048F4E92FF0E0E756FE4F208130E09F5F5E
:1005400090935202C90108958091510290915202F4
:10055000891B990B0895CF92DF92EF92FF920F9330
:100560001F93CF93DF937C01CB018A012091290255
:10057000222389F0EB016B01C40ED51ECC15DD05DD
:1005800069F06991D701ED91FC910190F081E02D26
:10059000C7010995F3CF642F0E941B02C801DF91A8
:1005A000CF911F910F91FF90EF90DF90CF90089522
:1005B000CF93DF931F92CDB7DEB7698320912902D5
:1005C0002223F9F020914F02203258F021E030E050
:1005D000FC013383228390E080E00F90DF91CF9184
:1005E000089580915002E82FF0E0E65DFD4F99817B
:1005F00090838F5F8093500280934F0281E090E060
:10060000ECCF61E0CE0101960E941B02F7CFCF92A2
:10061000DF92EF92FF920F931F93CF93DF93FC0132
:10062000C48121E020932902C0934A021092500213
:1006300010924F028385682B86E792E00E94D802D1
:10064000D0914F02D13208F092C00E943D016B015F
:100650007C0180912302811165C082E08093230296
:1006600081E0809322028FEF80932102109220027A
:10067000D0931F02AAE2B2E0EFEFF1E080E0D813DE
:1006800085C01092FE018091FE01CC0FC82BC09353
:10069000FE018091FD01813009F07CC01092FD01C6
:1006A0000E943D016B017C018091FE018093BB00A3
:1006B0008091250290912602A0912702B0912802F4
:1006C000892B8A2B8B2B99F00E943D0100912502EA
:1006D0001091260220912702309128026C197D0981
:1006E0008E099F090617170728073907E0F180913F
:1006F000BC0083FDD9CF85EC8093BC000E943D01F6
:100700006B017C0180912302823009F445C0809105
:1007100021028F3F61F180912102803241F180916D
:10072000210225C08091250290912602A0912702E6
:10073000B0912802892B8A2B8B2B09F48ACF0E9437
:100740003D0100912502109126022091270230914F
:1007500028026C197D098E099F09061717072807BB
:10076000390708F076CF809124020E94600210922F
:10077000500210924F0210922902DF91CF911F91E7
:100780000F91FF90EF90DF90CF9008959D919193FE
:100790008F5F75CF85EEB0CF8091250290912602B4
:1007A000A0912702B0912802892B8A2B8B2B09F468
:1007B000A9CF0E943D0100912502109126022091AF
:1007C0002702309128026C197D098E099F090617AE
:1007D00017072807390708F095CFC5CF90E080E0CC
:1007E00008950F931F93CF938C01C62F0E94070388
:1007F0006C2F6460C8010E9407036C2F6B7FC801D7
:100800000E94070383EC90E00197F1F7CF911F91CD
:100810000F9108950F931F93CF93DF938C01D62FE1
:10082000C42F607F642B0E94F10380E1D89FB00148
:1008300011246C2BC801DF91CF911F910F910C9463
:10084000F103CF93DF93CDB7DEB728970FB6F894B7
:10085000DEBF0FBECDBF98E0EEE0F1E0DE01119605
:1008600001900D929A95E1F790918A02961710F4F3
:100870006FEF690F262F30E0220F331F41E050E069
:100880004C0F5D1F240F351FF9016081680F6068F0
:1008900040E082E892E028960FB6F894DEBF0FBEE3
:1008A000CDBFDF91CF910C940A04CF93DF93EB017E
:1008B000682F80E00E9421044C815D8168817981EC
:1008C00082E892E0DF91CF910C94ED01CF93DF931A
:1008D000EB012C813D8136952795682F8AE0821B9C
:1008E0000E9421044C815D816881798182E892E0D7
:1008F000DF91CF910C94ED0140E061E082E892E05D
:100900000E940A048BE39FE10197F1F7089541E00B
:100910000E940A0481E090E008950F931F93CF9303
:10092000DF93EC0188819981009759F02A813B81FE
:100930002617370730F081E0DF91CF911F910F919B
:1009400008958B016F5F7F4F0E94850E009759F0CD
:10095000998388831B830A832C813D81232B59F73C
:10096000FC011082E8CF80E0E7CFEF92FF920F9377
:100970001F93CF93DF936115710541F480E0DF9100
:10098000CF911F910F91FF90EF9008954115510560
:10099000B1F07B01EC010C811D81040F151FB80122
:1009A0000E948D04882351F3288139818C819D8197
:1009B000B701820F931F0E944B0F1D830C8381E0B0
:1009C000DECFCF93DF93EC0188819981009711F0FE
:1009D0000E94FC0D198218821D821C821B821A82C1
:1009E000DF91CF910895CF93DF93EC01FB0101904C
:1009F0000020E9F73197AF01461B570B0E94B50461
:100A0000811103C0CE010E94E104CE01DF91CF919C
:100A10000895EF92FF920F931F93CF93DF93EC0112
:100A20007B018A01BA010E948D0481110BC0CE01A5
:100A30000E94E104CE01DF91CF911F910F91FF90B1
:100A4000EF9008951D830C83B701888199810E94DE
:100A50004B0FF0CFEF92FF920F931F93CF93DF9343
:100A6000CDB7DEB7A2970FB6F894DEBF0FBECDBFED
:100A70008C01CB01BA01F80111821082138212821B
:100A8000158214822AE0AE014F5F5F4F7A010E9407
:100A9000560BF70101900020E9F73197AF014E198D
:100AA0005F09B701C8010E940905A2960FB6F89424
:100AB000DEBF0FBECDBFDF91CF911F910F91FF9091
:100AC000EF900895FB01DC0111961C921E92139683
:100AD0001C921E92129715961C921E9214978617BE
:100AE000970749F0608171816115710521F044819A
:100AF00055810C9409050895FC011182108213821E
:100B0000128215821482FB0101900020E9F73197CF
:100B1000AF01461B570B0C940905FC0180819181A4
:100B2000009711F00C94FC0D089585ED8093BC00A6
:100B30008091250290912602A0912702B09128026F
:100B40000796A11DB11D23E0B695A79597958795AA
:100B50002A95D1F72091BC0024FD03C010922302F6
:100B600008954091250250912602609127027091CC
:100B70002802452B462B472B69F30097A105B105A9
:100B800041F02AE22A95F1F700C00197A109B109C5
:100B9000E1CF809124020C946002EF92FF920F93B8
:100BA0001F93CF93DF93CDB7DEB7AD970FB6F89411
:100BB000DEBF0FBECDBF7C0161E070E080E090E061
:100BC0000E9462018E010F5F1F4F60E080E0EF28FE
:100BD00009F045C00E9421040E947C0464E371E096
:100BE000C8010E947C05B80190E080E00E94660484
:100BF000C8010E948D0567E471E0C8010E947C0570
:100C0000B80181E090E00E946604C8010E948D0551
:100C100065E571E0C8010E947C05B80182E090E0C2
:100C20000E946604C8010E948D0562E671E0C80159
:100C30000E947C05B80183E090E00E946604C80130
:100C40000E948D05AD960FB6F894DEBF0FBECDBFE6
:100C5000DF91CF911F910F91FF90EF9008950E9427
:100C600021040E947C0462E771E0C8010E947C05B7
:100C7000B80190E080E00E945504C8010E948D05F3
:100C800060915B0270915C0280915D0290915E02C6
:100C900028EE33E040E050E00E94190DBA01A901AE
:100CA000CE0182960E942A056BE771E0C8010E947E
:100CB0007C054EA15FA16AA17BA1C8010E94B50479
:100CC000811103C0C8010E94E10462E871E0C8011B
:100CD0000E94F304BC01CE0188960E946205BE0109
:100CE000685D7F4F81E090E00E945504CE018896B8
:100CF0000E948D05C8010E948D05CE0182960E943A
:100D00008D056091650270916602809167029091F5
:100D1000680228EE33E040E050E00E94190DBA016D
:100D2000A901CE0182960E942A0566E871E0C801F9
:100D30000E947C054EA15FA16AA17BA1C8010E940F
:100D4000B504811103C0C8010E94E10462E871E0AA
:100D5000C8010E94F304BC01CE0188960E9462057E
:100D6000BE01685D7F4F82E090E00E945504CE0195
:100D700088960E948D05C8010E948D05CE0182963D
:100D80000E948D056091530270915402809155022A
:100D9000909156021BA21AA21DA21CA21FA21EA263
:100DA0002AE0A8010E94650BF80101900020E9F7F4
:100DB0003197AF01401B510BB801CE0182960E94C2
:100DC0000905BE016E5D7F4FC8010E9462056DE896
:100DD00071E0C8010E94F304BC01CE0188960E9414
:100DE0006205BE01685D7F4F83E090E00E9455047C
:100DF000CE0188960E948D05C8010E948D05CE0106
:100E000082961ECF1F920F920FB60F9211242F932E
:100E10003F938F939F93AF93BF9380916E02909176
:100E20006F02A0917002B091710230916D0223E0C7
:100E3000230F2D3758F50196A11DB11D20936D028A
:100E400080936E0290936F02A0937002B093710230
:100E50008091720290917302A0917402B091750218
:100E60000196A11DB11D8093720290937302A0930D
:100E70007402B0937502BF91AF919F918F913F9192
:100E80002F910F900FBE0F901F90189526E8230FFB
:100E90000296A11DB11DD2CF1F920F920FB60F92D5
:100EA00011242F933F934F935F936F937F938F936F
:100EB0009F93AF93BF93EF93FF93E0910201F09163
:100EC00003010995FF91EF91BF91AF919F918F9190
:100ED0007F916F915F914F913F912F910F900FBE36
:100EE0000F901F9018951F920F920FB60F9211241A
:100EF0002F933F934F935F936F937F938F939F9322
:100F0000AF93BF93EF93FF93E0910001F091010144
:100F10000995FF91EF91BF91AF919F918F917F9133
:100F20006F915F914F913F912F910F900FBE0F9056
:100F30001F9018951F920F920FB60F9211242F93A6
:100F40003F934F935F936F937F938F939F93AF9351
:100F5000BF93EF93FF938091B900887F803609F4A7
:100F60004AC0F0F5883209F4A7C018F5803109F4B9
:100F70009BC0B8F4882309F4F9C0883009F494C000
:100F8000FF91EF91BF91AF919F918F917F916F9161
:100F90005F914F913F912F910F900FBE0F901F9037
:100FA0001895883109F488C0803251F78093210266
:100FB00014C0803409F49DC040F48033B9F3883301
:100FC000F9F68093210285ECB0C0803509F485C024
:100FD000883509F496C0883499F60E949505D0CFDB
:100FE000883909F48CC038F5883729F050F48836F0
:100FF00011F0803729F683E0809323021092FC01E0
:1010000057C0883809F47BC0803919F0803809F05E
:10101000B7CF8091FC01803208F071C0E091FC01F3
:1010200081E08E0F8093FC018091BB00F0E0E452E0
:10103000FE4F80833DC0803B39F0E0F4803A09F4F4
:1010400079C0883A09F09CCF84E080932302109203
:10105000DB011092DA01E0914D02F0914E02099508
:101060008091DA0181110FC081E08093DA01109242
:10107000BA0109C0803C09F4A6CF883C09F4A3CF8B
:10108000883B09F07DCFE091DB0181E08E0F8093FA
:10109000DB01F0E0E654FE4F80818093BB0090912D
:1010A000DB018091DA0129C08091FE018093BB00B1
:1010B00085EC8093BC0064CF9091200280911F0248
:1010C000981758F5E091200281E08E0F809320025E
:1010D000F0E0E150FE4F8081E9CFE091200281E015
:1010E0008E0F809320028091BB00F0E0E150FE4F14
:1010F00080839091200280911F029817C8F285E8A2
:10110000D8CFE091200281E08E0F80932002809161
:10111000BB00F0E0E150FE4F8083809122028111FC
:101120005CCF81E08093FD0184EA8093BC00109243
:10113000230226CF85EC8093BC001092230280917D
:10114000FC01803230F4E091FC01F0E0E452FE4F0B
:1011500010826091FC0170E0E0914B02F0914C0232
:101160008CED91E009951092FC010ACF10922102BA
:1011700034CFE6E7F2E01382128288EE93E0A0E03B
:10118000B0E084839583A683B7838AE191E091835D
:101190008083E2E8F2E0138212828CE291E0918394
:1011A000808387E2848384E1818784E08287138659
:1011B0000895789484B5826084BD84B5816084BDCF
:1011C00085B5826085BD85B5816085BD80916E00E5
:1011D000816080936E001092810080918100826016
:1011E0008093810080918100816080938100809153
:1011F00080008160809380008091B1008460809342
:10120000B1008091B00081608093B00080917A003D
:10121000846080937A0080917A00826080937A0063
:1012200080917A00816080937A0080917A00806852
:1012300080937A001092C1001092520210925102D3
:101240001092500210924F020E9442028AEE91E0E8
:1012500090934E0280934D028BEE91E090934C025E
:1012600080934B021092870280918C02823018F09A
:1012700098E09093870280938A0262E370E080E0B6
:1012800090E00E94620160918D0282E892E00E94EB
:10129000070368EE73E080E090E00E94620160E383
:1012A00082E892E00E94F103CBE4D6E4CE010197FC
:1012B000F1F760E382E892E00E94F1032197F1F7F1
:1012C00060E382E892E00E94F10383E592E00197F7
:1012D000F1F760E282E892E00E94F10360918702F8
:1012E000606240E082E892E00E940A0484E0809319
:1012F000880240E06CE082E892E00E940A040E94CA
:101300007C0482E08093890240E066E082E892E01B
:101310000E940A0440E062E082E892E00E940A042F
:101320008BE39FE10197F1F788E080938D0260E005
:1013300082E892E00E94070362E082E00E940C01D2
:1013400062E083E00E940C0124E931E03093010166
:1013500020930001809169008C7F816080936900F7
:10136000E89A309303012093020180916900837F02
:10137000846080936900E99A62E084E00E940C0135
:1013800061E08AE00E940C0161E085E00E940C01AE
:1013900061E086E00E940C0120910401309105017A
:1013A0004091060150910701A8EBBBE00E94920C0E
:1013B000685674458D4F9F4F24E630E040E050E082
:1013C0000E94190DA7EBBAE70E94920C20E233E0CD
:1013D00040E050E00E94190D2093530230935402D4
:1013E000409355025093560290E080E00E94CD0554
:1013F00060ED77E080E090E00E94620181E090E0A3
:101400000E94CD0561E070E080E090E00E94620102
:1014100061E070E080E090E00E94620161E070E0D5
:1014200080E090E00E94620161E070E080E090E086
:101430000E94620161E070E080E090E00E94620141
:1014400061E070E080E090E00E94620161E070E0A5
:1014500080E090E00E94620161E070E080E090E056
:101460000E94620190E8C92E98E3D92EEE24E394FD
:10147000F12CCBE8D1E000E010E0BB24B3948091E4
:101480006C02882331F081E090E00E94CD0510923B
:101490006C0280916B02882331F160916902709136
:1014A0006A0277FF02C06D5F7F4F759567957595EE
:1014B0006795072E000C880B990B0E94990B20E072
:1014C00030E04AE754E40E94D40B0E94E30C60939E
:1014D000650270936602809367029093680210928F
:1014E0006B02B0926C0284E00E94B50021E000978C
:1014F00009F420E02093640220916302222301F189
:10150000892B99F42FB7F89480916E0290916F0215
:10151000A0917002B09171022FBF80935F029093EF
:101520006002A0936102B093620280916402809392
:1015300063020115110509F4A2CF0E9400009FCF9C
:10154000892B99F32FB7F89480916E0290916F02D6
:10155000A0917002B09171022FBF40915F02509133
:1015600060026091610270916202841B950BA60B70
:10157000B70B893E9340A105B105BCF240905B02D8
:1015800050905C0260905D0270905E0280916502F6
:1015900090916602A0916702B091680248165906C0
:1015A0006A067B060CF07FC080915702909158022A
:1015B000A0915902B0915A0280389843A140B105D8
:1015C000E4F1209104013091050140910601509110
:1015D00007012F5F3F4F4F4F5F4F20930401309320
:1015E00005014093060150930701A8EBBBE00E9460
:1015F000920C9B01AC01285634454D4F5F4FAEE62F
:10160000B5EF0E94920CA70196010E94190D20933C
:101610005302309354024093550250935602109255
:101620005702109258021092590210925A0264E620
:1016300070E080E090E00E94620161E085E00E943D
:10164000DE00CE010197F1F760E085E00E94DE0048
:10165000CE010197F1F78091530290915402A0912D
:101660005502B0915602840D951DA61DB71D80939D
:101670005B0290935C02A0935D02B0935E02809146
:10168000570290915802A0915902B0915A020196C6
:10169000A11DB11D8093570290935802A093590247
:1016A000B0935A026BCFB0926C023FCFBB272A3067
:1016B00051F4992342F4BDE290958095709561951F
:1016C0007F4F8F4F9F4F0C94660BBB27FA01A62FBD
:1016D0006217710581059105330B30FB66F0AA276F
:1016E000660F771F881F991FAA1FA21710F0A21B51
:1016F00063953850A9F7A05DAA3308F0A95DA193BE
:1017000036F7B111B1931082CA010C94870BDC013A
:10171000FC01672F71917723E1F7329704C07C9128
:101720006D9370836291AE17BF07C8F30895E89474
:1017300009C097FB3EF490958095709561957F4F19
:101740008F4F9F4F9923A9F0F92F96E9BB279395C7
:10175000F695879577956795B795F111F8CFFAF4D7
:10176000BB0F11F460FF1BC06F5F7F4F8F4F9F4F08
:1017700016C0882311F096E911C0772321F09EE866
:10178000872F762F05C0662371F096E8862F70E0CC
:1017900060E02AF09A95660F771F881FDAF7880FA6
:1017A0009695879597F908950E94E70B0C94580C2D
:1017B0000E944A0C38F00E94510C20F0952311F041
:1017C0000C94410C0C94470C11240C948C0C0E942A
:1017D000690C70F3959FC1F3950F50E0551F629F00
:1017E000F001729FBB27F00DB11D639FAA27F00D7A
:1017F000B11DAA1F649F6627B00DA11D661F829FA1
:101800002227B00DA11D621F739FB00DA11D621F85
:10181000839FA00D611D221F749F3327A00D611DA2
:10182000231F849F600D211D822F762F6A2F112484
:101830009F5750409AF0F1F088234AF0EE0FFF1FB7
:10184000BB1F661F771F881F91505040A9F79E3F0E
:10185000510580F00C94410C0C948C0C5F3FE4F328
:10186000983ED4F3869577956795B795F795E79564
:101870009F5FC1F7FE2B880F911D9695879597F96D
:10188000089597F99F6780E870E060E008959FEF02
:1018900080EC089500240A94161617061806090607
:1018A000089500240A9412161306140605060895D6
:1018B000092E0394000C11F4882352F0BB0F40F45E
:1018C000BF2B11F460FF04C06F5F7F4F8F4F9F4F9E
:1018D000089557FD9058440F551F59F05F3F71F020
:1018E0004795880F97FB991F61F09F3F79F0879587
:1018F0000895121613061406551FF2CF4695F1DF10
:1019000008C0161617061806991FF1CF869571059F
:10191000610508940895E894BB2766277727CB01D3
:1019200097F908950E94D40CA59F900DB49F900D37
:10193000A49F800D911D112408952F923F924F92E4
:101940005F926F927F928F929F92AF92BF92CF924F
:10195000DF92EF92FF920F931F93CF93DF93CDB758
:10196000DEB7CA1BDB0B0FB6F894DEBF0FBECDBFD0
:1019700009942A88398848885F846E847D848C84A1
:101980009B84AA84B984C884DF80EE80FD800C81AA
:101990001B81AA81B981CE0FD11D0FB6F894DEBF8D
:1019A0000FBECDBFED010895A29FB001B39FC0014E
:1019B000A39F700D811D1124911DB29F700D811D7B
:1019C0001124911D08950E94EA0C6894B1110C94A1
:1019D0008C0C08950E94710C88F09F5798F0B92FD5
:1019E0009927B751B0F0E1F0660F771F881F991F54
:1019F0001AF0BA95C9F714C0B13091F00E948B0C5F
:101A0000B1E008950C948B0C672F782F8827B85F6E
:101A100039F0B93FCCF3869577956795B395D9F7AB
:101A20003EF490958095709561957F4F8F4F9F4FB5
:101A30000895052E97FB1EF400940E94300D57FD6B
:101A400007D00E94380D07FC03D04EF40C94300DE3
:101A500050954095309521953F4F4F4F5F4F0895DA
:101A600090958095709561957F4F8F4F9F4F08950A
:101A7000A1E21A2EAA1BBB1BFD010DC0AA1FBB1F92
:101A8000EE1FFF1FA217B307E407F50720F0A21B04
:101A9000B30BE40BF50B661F771F881F991F1A9471
:101AA00069F760957095809590959B01AC01BD019B
:101AB000CF010895EE0FFF1F0590F491E02D0994DA
:101AC0000F931F93CF93DF938230910510F482E040
:101AD00090E0E0919002F091910230E020E0B0E0DF
:101AE000A0E0309799F42115310509F44AC0281B6C
:101AF000390B24303105D8F58A819B816115710538
:101B000089F1FB0193838283FE0111C040815181E1
:101B10000281138148175907E0F04817590799F4D3
:101B2000109761F012960C93129713961C933296AD
:101B3000CF01DF91CF911F910F91089500939002F3
:101B400010939102F4CF2115310551F0421753073C
:101B500038F0A901DB019A01BD01DF01F801C1CF15
:101B6000EF01F9CF9093910280939002CDCFFE01C7
:101B7000E20FF31F81939193225031093983288317
:101B8000D7CF20918E0230918F02232B41F42091E8
:101B90000A0130910B0130938F0220938E02209125
:101BA0000801309109012115310541F42DB73EB7E7
:101BB00040910C0150910D01241B350BE0918E02D8
:101BC000F0918F02E217F307A0F42E1B3F0B2817AA
:101BD000390778F0AC014E5F5F4F2417350748F0A6
:101BE0004E0F5F1F50938F0240938E02819391930B
:101BF0009FCFF0E0E0E09CCFCF93DF930097E9F038
:101C0000FC01329713821282A0919002B09191024E
:101C1000ED0130E020E01097A1F420813181820FA6
:101C2000931F20918E0230918F022817390709F0F7
:101C300061C0F0938F02E0938E02DF91CF910895FF
:101C4000EA01CE17DF07E8F54A815B819E01411565
:101C50005105B1F7E901FB83EA8349915991C40F1A
:101C6000D51FEC17FD0761F4808191810296840FE6
:101C7000951FE90199838883828193819B838A835D
:101C8000F0E0E0E012968D919C9113970097B9F5E2
:101C90002D913C911197CD010296820F931F2091B7
:101CA0008E0230918F022817390739F6309751F597
:101CB0001092910210929002B0938F02A0938E0224
:101CC000BCCFD383C28340815181840F951FC81735
:101CD000D90761F44E5F5F4F88819981480F591F82
:101CE000518340838A819B819383828321153105AF
:101CF00009F0B0CFF0939102E09390029ECFFD01E6
:101D0000DC01C0CF13821282D7CFB0E0A0E0EBE8B5
:101D1000FEE00C949F0C8C01009751F4CB010E94C3
:101D2000600D8C01C801CDB7DEB7E0E10C94BB0CAF
:101D3000FC01E60FF71F9C0122503109E217F3075F
:101D400008F49DC0D901CD91DC911197C617D70732
:101D500098F0C530D10530F3CE0104978617970768
:101D600008F3C61BD70B2297C193D1936D937C9335
:101D7000CF010E94FC0DD6CF5B01AC1ABD0A4C010D
:101D80008C0E9D1EA0919002B0919102512C412C7D
:101D9000F12CE12C109731F580918E0290918F02F9
:101DA0008815990509F05CC04616570608F058C01A
:101DB0008091080190910901009741F48DB79EB779
:101DC00040910C0150910D01841B950BE817F90708
:101DD00008F055C0F0938F02E0938E02F9017183F1
:101DE0006083A0CF8D919C91119712966C90129761
:101DF00013967C901397A815B90559F56C0142E02C
:101E0000C40ED11CCA14DB0420F1AC014A195B09D1
:101E1000DA011296159780F06282738251834083B3
:101E2000D9016D937C93E114F10471F0D7011396FD
:101E3000FC93EE93129776CF22968C0F9D1FF9019B
:101E400091838083F301EFCFF0939102E0939002AE
:101E500069CF4816590608F42C017D01D3019ACFA9
:101E6000CB010E94600D7C01009749F0AE01B801E2
:101E70000E94420FC8010E94FC0D870153CF10E061
:101E800000E050CFFB01DC0102C001900D924150F7
:101E90005040D8F70895FB01DC0101900D9200201D
:081EA000E1F70895F894FFCF6B
:101EA800EC01EC010200000000009202800000003A
:101EB80040001400540000000000D802AB02EE03FA
:101EC8008102A40291028202000000008704ED0151
:101ED800EE031A02537562647563746F7220656E3F
:101EE80020636F7572730064652064656D6172723A
:101EF8006167652E0050617469656E74657A2E2E6F
:101F08002E004661697420706172205448304C3349
:101F18004600506F736974696F6E006F6C64203A85
:101F28002000206D6D006E6577203A200020756DC9
:061F38002F7374657000B8
:00000001FF
