:100000000C94DF000C94DE070C94B7070C940701E6
:100010000C9407010C9407010C9407010C94070140
:100020000C9407010C9407010C9407010C94070130
:100030000C9407010C9407010C9407010C94070120
:100040000C946D070C9407010C9407010C940701A4
:100050000C9407010C9407010C9407010C94070100
:100060000C9405080C94070100407A10F35A00A084
:10007000724E18090010A5D4E80000E87648170071
:1000800000E40B54020000CA9A3B000000E1F505B1
:10009000000080969800000040420F000000A086FB
:1000A00001000000102700000000E803000000002D
:1000B0006400000000000A000000000001000000D1
:1000C00000002C76D888DC674F0823DFC1DFAE59EB
:1000D000E1B1B796E5E3E453C63AE651997696E87E
:1000E000E6C28426EB898C9B62ED407C6FFCEFBC02
:1000F0009C9F40F2BAA56FA5F490055A2AF75C932D
:100100006B6CF9676DC11BFCE0E40D47FEF520E662
:10011000B500D0ED902E0300943577050080841E45
:10012000080000204E0A000000C80C333333330FA0
:10013000986E12831141EF8D2114893BE65516CF3D
:10014000FEE6DB18D1844B381BF77C1D901DA4BB49
:10015000E424203284725E228100C9F124ECA1E5FE
:100160003D2700000000240027002A0000000000B6
:10017000250028002B000000000023002600290095
:10018000040404040404040402020202020203033D
:100190000303030301020408102040800102040845
:1001A00010200102040810200000000800020100D5
:1001B00000030407000000000000000024091124CF
:1001C0001FBECFEFD8E0DEBFCDBF22E0A0E9B1E097
:1001D00001C01D92A038B207E1F711E0A0E0B1E044
:1001E000E8E2F1E202C005900D92A039B107D9F71B
:1001F00010E0CFEDD0E004C02197FE010E949A0EDE
:10020000CE3DD107C9F70E9444090C9492100C947A
:100210000000833081F028F4813099F08230A9F019
:1002200008958730A9F08830C9F08430B1F4809106
:1002300080008F7D03C0809180008F778093800045
:10024000089584B58F7784BD089584B58F7DFBCFE5
:100250008091B0008F778093B00008958091B000B6
:100260008F7DF9CFCF93DF93282F30E0F901E85548
:10027000FE4F8491F901EC56FE4FD491F901E058FC
:10028000FE4FC491CC23A1F081110E940901EC2FF3
:10029000F0E0EE0FFF1FEA58FE4FA591B491EC91EC
:1002A000ED2381E090E009F480E0DF91CF910895A3
:1002B00080E090E0FACF1F93CF93DF93282F30E0B8
:1002C000F901E855FE4F8491F901EC56FE4FD491A7
:1002D000F901E058FE4FC491CC23A9F0162F8111EB
:1002E0000E940901EC2FF0E0EE0FFF1FE459FE4FD2
:1002F000A591B4918FB7F894EC91111108C0D095E5
:10030000DE23DC938FBFDF91CF911F910895DE2B09
:10031000F8CFCF93DF9390E0FC01EC56FE4F249191
:1003200080589E4FFC0184918823C9F090E0880F8B
:10033000991FFC01EE59FE4FA591B491FC01E459BF
:10034000FE4FC591D49161110DC09FB7F8948C9167
:10035000209582238C938881282328839FBFDF9157
:10036000CF910895623051F49FB7F8943C91822F59
:10037000809583238C93E8812E2BEFCF8FB7F89451
:10038000EC912E2B2C938FBFEACF3FB7F89480913E
:10039000600290916102A0916202B091630226B561
:1003A000A89B05C02F3F19F00196A11DB11D3FBFAD
:1003B000BA2FA92F982F8827BC01CD01620F711D7C
:1003C000811D911D42E0660F771F881F991F4A9576
:1003D000D1F708958F929F92AF92BF92CF92DF9202
:1003E000EF92FF924B015C010E94C5016B017C0101
:1003F0000E94C5016C197D098E099F09683E7340F2
:1004000081059105A8F321E0821A9108A108B1089D
:1004100088EEC80E83E0D81EE11CF11C8114910403
:10042000A104B10429F7FF90EF90DF90CF90BF9027
:10043000AF909F908F9008950F931F93CF9382E07A
:100440000E9432018C01C1E0892B09F4C0E0C09305
:10045000920183E00E94320141E0009709F440E0FC
:100460006091910150919001C61302C04517E9F0C7
:1004700020915802309159026623D9F0552359F141
:10048000012B59F5892BD9F480915802909159028A
:1004900097FF04C01092590210925802C093910124
:1004A0004093900181E080935A02CF911F910F9168
:1004B0000895552359F0012B59F4892B29F72F5F03
:1004C0003F4F3093590220935802DECF012BA9F7FA
:1004D000892BD1F204C0012BA9F6892BA9F6215052
:1004E0003109EFCF089508950895AF92BF92CF924A
:1004F000DF92EF92FF920F931F93CF93DF936C01E4
:100500007B018B01040F151FEB015E01AE18BF08C4
:10051000C017D10759F06991D601ED91FC91019076
:10052000F081E02DC6010995892B79F7C501DF918E
:10053000CF911F910F91FF90EF90DF90CF90BF90E0
:10054000AF90089508952091D401260F3327331FCB
:1005500021323105ECF420911D02FC0190E080E095
:10056000243069F082E00895A091D4012191AC017A
:100570004C545E4FA40FB52FB11D2C9301968617D6
:1005800098F38091D401680F6093D40180E00895BE
:1005900081E0089510921D0281E080931C02109268
:1005A000F70161E082E10E945B0161E083E10E946A
:1005B0005B01E9EBF0E080818E7F808380818D7F1D
:1005C000808388E48093B80085E48093BC0008951C
:1005D000CF93DF9391E09093B3018823B9F0C0915A
:1005E000B800D091BA008091BC008A7B8093BC0097
:1005F00060E082E10E945B0160E083E10E945B01B8
:100600000E94CA02D093BA00C093B800DF91CF9184
:1006100008950895E0914C0280914B02E81730F460
:10062000F0E0ED56FE4F808190E008958FEF9FEF50
:10063000089590914C0280914B022FEF3FEF981755
:1006400048F4E92FF0E0ED56FE4F208130E09F5F47
:1006500090934C02C901089580914B0290914C02F5
:10066000891B990B0895CF92DF92EF92FF920F931F
:100670001F93CF93DF937C01CB018A01209123024A
:10068000222389F0EB016B01C40ED51ECC15DD05CC
:1006900069F06991D701ED91FC910190F081E02D15
:1006A000C7010995F3CF642F0E94A302C801DF910F
:1006B000CF911F910F91FF90EF90DF90CF90089511
:1006C000CF93DF931F92CDB7DEB7698320912302CA
:1006D0002223F9F020914902203258F021E030E045
:1006E000FC013383228390E080E00F90DF91CF9173
:1006F000089580914A02E82FF0E0EC5DFD4F99816A
:1007000090838F5F80934A028093490281E090E05A
:10071000ECCF61E0CE0101960E94A302F7CFCF9209
:10072000DF92EF92FF920F931F93CF93DF93FC0121
:10073000C48121E020932302C093440210924A0214
:10074000109249028385682B84E692E00E94600340
:10075000D0914902D13208F092C00E94C5016B01CC
:100760007C0180911D02811165C082E080931D0291
:1007700081E080931C028FEF80931B0210921A027B
:10078000D0931902A4E2B2E0E9EFF1E080E0D813DF
:1007900085C01092F8018091F801CC0FC82BC0934E
:1007A000F8018091F701813009F07CC01092F701C7
:1007B0000E94C5016B017C018091F8018093BB0010
:1007C00080911F0290912002A0912102B0912202FB
:1007D000892B8A2B8B2B99F00E94C50100911F0257
:1007E0001091200220912102309122026C197D0982
:1007F0008E099F090617170728073907E0F180912E
:10080000BC0083FDD9CF85EC8093BC000E94C5015C
:100810006B017C0180911D02823009F445C08091FA
:100820001B028F3F61F180911B02803241F1809168
:100830001B0225C080911F0290912002A0912102ED
:10084000B0912202892B8A2B8B2B09F48ACF0E942C
:10085000C50100911F0210912002209121023091C8
:1008600022026C197D098E099F09061717072807B0
:10087000390708F076CF80911E020E94E80210929C
:100880004A021092490210922302DF91CF911F91E8
:100890000F91FF90EF90DF90CF9008959D919193ED
:1008A0008F5F75CF85EEB0CF80911F0290912002AF
:1008B000A0912102B0912202892B8A2B8B2B09F463
:1008C000A9CF0E94C50100911F0210912002209122
:1008D0002102309122026C197D098E099F090617A9
:1008E00017072807390708F095CFC5CF90E080E0BB
:1008F00008950F931F93CF938C01C62F0E948F03EF
:100900006C2F6460C8010E948F036C2F6B7FC8013D
:100910000E948F0383EC90E00197F1F7CF911F9134
:100920000F9108950F931F93CF93DF938C01D62FD0
:10093000C42F607F642B0E94790480E1D89FB001AE
:1009400011246C2BC801DF91CF911F910F910C9452
:100950007904CF93DF93CDB7DEB728970FB6F8941D
:10096000DEBF0FBECDBF98E0EAE0F1E0DE011196F8
:1009700001900D929A95E1F790917802961710F4F4
:100980006FEF690F262F30E0220F331F41E050E058
:100990004C0F5D1F240F351FF9016081680F6068DF
:1009A00040E080E792E028960FB6F894DEBF0FBED5
:1009B000CDBFDF91CF910C949204CF93DF93EB01E5
:1009C000682F80E00E94A9044C815D816881798153
:1009D00080E792E0DF91CF910C947502CF93DF9383
:1009E000EB012C813D8136952795682F8AE0821B8B
:1009F0000E94A9044C815D816881798180E792E041
:100A0000DF91CF910C94750240E061E080E792E0C5
:100A10000E9492048BE39FE10197F1F7089541E072
:100A20000E94920481E090E008950F931F93CF936A
:100A3000DF93EC0188819981009759F02A813B81ED
:100A40002617370730F081E0DF91CF911F910F918A
:100A500008958B016F5F7F4F0E94C50F009759F07B
:100A6000998388831B830A832C813D81232B59F72B
:100A7000FC011082E8CF80E0E7CFEF92FF920F9366
:100A80001F93CF93DF936115710541F480E0DF91EF
:100A9000CF911F910F91FF90EF900895411551054F
:100AA000B1F07B01EC010C811D81040F151FB80111
:100AB0000E941505882351F3288139818C819D81FD
:100AC000B701820F931F0E948B101D830C8381E05E
:100AD000DECFCF93DF93EC0188819981009711F0ED
:100AE0000E943C0F198218821D821C821B821A826E
:100AF000DF91CF910895CF93DF93EC01FB0101903B
:100B00000020E9F73197AF01461B570B0E943D05C6
:100B1000811103C0CE010E946905CE01DF91CF9102
:100B20000895EF92FF920F931F93CF93DF93EC0101
:100B30007B018A01BA010E94150581110BC0CE010B
:100B40000E946905CE01DF91CF911F910F91FF9017
:100B5000EF9008951D830C83B701888199810E94CD
:100B60008B10F0CFEF92FF920F931F93CF93DF93F1
:100B7000CDB7DEB7A1970FB6F894DEBF0FBECDBFDD
:100B80007C01CB01BA01F70111821082138212821B
:100B9000158214828E010F5F1F4F22E044E00E94F5
:100BA000D90A0097C9F0FC0101900020E9F73197BC
:100BB000AF01481B590BBC01C7010E949105A196CA
:100BC0000FB6F894DEBF0FBECDBFDF91CF911F915E
:100BD0000F91FF90EF900895C7010E946905EFCF34
:100BE000FB01DC0111961C921E9213961C921E9220
:100BF000129715961C921E9214978617970749F024
:100C0000608171816115710521F0448155810C94D9
:100C100091050895FC0111821082138212821582BF
:100C20001482FB0101900020E9F73197AF01461BC8
:100C3000570B0C949105FC0180819181009711F074
:100C40000C943C0F089585ED8093BC0080911F02A9
:100C500090912002A0912102B09122020796A11D3D
:100C6000B11D23E0B695A795979587952A95D1F75D
:100C70002091BC0024FD03C010921D0208954091F4
:100C80001F02509120026091210270912202452B97
:100C9000462B472B69F30097A105B10541F02AE2E5
:100CA0002A95F1F700C00197A109B109E1CF809120
:100CB0001E020C94E8020F931F93CF93DF93CDB7DE
:100CC000DEB76E970FB6F894DEBF0FBECDBF8E01B4
:100CD0000F5F1F4F60E0892B09F044C080E00E9445
:100CE000A9040E94040560E371E0C8010E940A069D
:100CF000B80190E080E00E94EE04C8010E941B064B
:100D000063E471E0C8010E940A06B80181E090E046
:100D10000E94EE04C8010E941B0661E571E0C80153
:100D20000E940A06B80182E090E00E94EE04C80129
:100D30000E941B066EE571E0C8010E940A06B80118
:100D400083E090E00E94EE04C8010E941B066E96AC
:100D50000FB6F894DEBF0FBECDBFDF91CF911F91CC
:100D60000F91089580E00E94A9040E9404056EE698
:100D700071E0C8010E940A06B80190E080E00E947C
:100D8000DD04C8010E941B0640E050E0BA01CE011C
:100D900043960E94B20567E771E0C8010E940A0607
:100DA0004F89588D6B897C89C8010E943D0581114E
:100DB00003C0C8010E9469056EE771E0C8010E9486
:100DC0007B05BC01CE0149960E94F005BE01675E1D
:100DD0007F4F81E090E00E94DD04CE0149960E94A1
:100DE0001B06C8010E941B06CE0143960E941B06EB
:100DF00040915402509155026091560270915702F1
:100E0000CE0143960E94B20562E871E0C8010E94DB
:100E10000A064F89588D6B897C89C8010E943D055F
:100E2000811103C0C8010E9469056EE771E0C80125
:100E30000E947B05BC01CE0149960E94F005BE01CF
:100E4000675E7F4F82E090E00E94DD04CE0149960C
:100E50000E941B06C8010E941B06CE0143960E94F9
:100E60001B0680914D0290914E021C8A1B8A1E8A9D
:100E70001D8A188E1F8A4AE0B8010E94F70AF801FD
:100E800001900020E9F73197AF01401B510BB801E9
:100E9000CE0143960E949105BE016D5E7F4FC80151
:100EA0000E94F00569E871E0C8010E947B05BC0161
:100EB000CE0149960E94F005BE01675E7F4F83E038
:100EC00090E00E94DD04CE0149960E941B06C801F5
:100ED0000E941B06CE01439638CF1F920F920FB689
:100EE0000F9211242F933F938F939F93AF93BF93B0
:100EF00080915C0290915D02A0915E02B0915F02D0
:100F000030915B0223E0230F2D3758F50196A11D88
:100F1000B11D20935B0280935C0290935D02A093CD
:100F20005E02B0935F028091600290916102A09195
:100F30006202B09163020196A11DB11D809360020F
:100F400090936102A0936202B0936302BF91AF914C
:100F50009F918F913F912F910F900FBE0F901F90F7
:100F6000189526E8230F0296A11DB11DD2CF1F921E
:100F70000F920FB60F9211242F933F934F935F93CD
:100F80006F937F938F939F93AF93BF93EF93FF9351
:100F9000E0910201F09103010995FF91EF91BF915A
:100FA000AF919F918F917F916F915F914F913F9101
:100FB0002F910F900FBE0F901F9018951F920F92B8
:100FC0000FB60F9211242F933F934F935F936F931C
:100FD0007F938F939F93AF93BF93EF93FF93E09192
:100FE0000001F09101010995FF91EF91BF91AF913F
:100FF0009F918F917F916F915F914F913F912F9131
:101000000F900FBE0F901F9018951F920F920FB662
:101010000F9211242F933F934F935F936F937F937E
:101020008F939F93AF93BF93EF93FF938091B900FA
:10103000887F803609F44AC0F0F5883209F4A7C0E9
:1010400018F5803109F49BC0B8F4882309F4F9C07D
:10105000883009F494C0FF91EF91BF91AF919F91B7
:101060008F917F916F915F914F913F912F910F9051
:101070000FBE0F901F901895883109F488C08032F8
:1010800051F780931B0214C0803409F49DC040F4D2
:101090008033B9F38833F9F680931B0285ECB0C036
:1010A000803509F485C0883509F496C0883499F6EE
:1010B0000E942306D0CF883909F48CC038F58837D0
:1010C00029F050F4883611F0803729F683E08093B8
:1010D0001D021092F60157C0883809F47BC0803990
:1010E00019F0803809F0B7CF8091F601803208F00E
:1010F00071C0E091F60181E08E0F8093F60180913E
:10110000BB00F0E0EA52FE4F80833DC0803B39F0E7
:10111000E0F4803A09F479C0883A09F09CCF84E081
:1011200080931D021092D5011092D401E0914702E4
:10113000F091480209958091D40181110FC081E09E
:101140008093D4011092B40109C0803C09F4A6CF69
:10115000883C09F4A3CF883B09F07DCFE091D5010D
:1011600081E08E0F8093D501F0E0EC54FE4F80813A
:101170008093BB009091D5018091D40129C08091CA
:10118000F8018093BB0085EC8093BC0064CF909104
:101190001A0280911902981758F5E0911A0281E01D
:1011A0008E0F80931A02F0E0E750FE4F8081E9CF66
:1011B000E0911A0281E08E0F80931A028091BB00A9
:1011C000F0E0E750FE4F808390911A02809119025F
:1011D0009817C8F285E8D8CFE0911A0281E08E0F07
:1011E00080931A028091BB00F0E0E750FE4F8083AD
:1011F00080911C0281115CCF81E08093F70184EA29
:101200008093BC0010921D0226CF85EC8093BC0019
:1012100010921D028091F601803230F4E091F601C7
:10122000F0E0EA52FE4F10826091F60170E0E0912A
:101230004502F091460286ED91E009951092F60183
:101240000ACF10921B0234CFE4E6F2E0138212823E
:1012500088EE93E0A0E0B0E084839583A683B78313
:1012600086E191E091838083E0E7F2E013821282CD
:1012700088E291E09183808387E2848384E181879F
:1012800084E0828713860895789484B5826084BD53
:1012900084B5816084BD85B5826085BD85B581607A
:1012A00085BD80916E00816080936E0010928100F8
:1012B00080918100826080938100809181008160B3
:1012C0008093810080918000816080938000809174
:1012D000B10084608093B1008091B0008160809300
:1012E000B00080917A00846080937A0080917A00C7
:1012F000826080937A0080917A00816080937A0086
:1013000080917A00806880937A001092C1001092D8
:101310004C0210924B0210924A02109249020E9413
:10132000CA0282E792E0909348028093470283E7E3
:1013300092E090934602809345021092750280914C
:101340007A02823018F098E09093750280937802C8
:1013500062E370E080E090E00E94EA0160917B022D
:1013600080E792E00E948F0368EE73E080E090E0F7
:101370000E94EA0160E380E792E00E947904CBE4F6
:10138000D6E4CE010197F1F760E380E792E00E9496
:1013900079042197F1F760E380E792E00E947904F5
:1013A00083E592E00197F1F760E280E792E00E9426
:1013B000790460917502606240E080E792E00E94EB
:1013C000920484E08093760240E06CE080E792E053
:1013D0000E9492040E94040582E08093770240E01C
:1013E00066E080E792E00E94920440E062E080E7DD
:1013F00092E00E9492048BE39FE10197F1F788E06D
:1014000080937B0260E080E792E00E948F0362E0BD
:1014100082E00E94890162E083E00E9489012CE160
:1014200032E03093010120930001809169008C7FAC
:10143000816080936900E89A309303012093020150
:1014400080916900837F846080936900E99A60E0FD
:1014500084E00E94890161E08AE00E94890161E0E4
:1014600085E00E94890161E086E00E94890190E0A8
:1014700080E00E945B0660ED77E080E090E00E94F3
:10148000EA0181E090E00E945B06C0E0D0E011E05C
:1014900080915A02882331F081E090E00E945B063F
:1014A00010925A02609158027091590277FF02C05F
:1014B0006D5F7F4F7595679575956795072E000C45
:1014C000880B990B0E94650D20E030E040E251E46A
:1014D0000E94280E60935402709355028093560226
:1014E0009093570284E00E943201892B09F1809188
:1014F000500290915102A0915202B0915302892B57
:101500008A2B8B2B41F510934F022FB7F8948091C3
:101510005C0290915D02A0915E02B0915F022FBFCC
:101520008093500290935102A0935202B0935302C1
:1015300084E00E943201892B41F4109250021092F3
:1015400051021092520210925302209709F4A0CF38
:101550000E9400009DCF2FB7F89480915C0290917B
:101560005D02A0915E02B0915F022FBF40915002D8
:10157000509151026091520270915302841B950B5D
:10158000A60BB70B853F9140A105B10588F280916C
:101590004F02882369F280914D0290914E0201968C
:1015A00090934E0280934D0210924F0210935A0274
:1015B000BFCFEF920F931F93CF93DF93E80134E0F7
:1015C00047FD34E1042E000C550B57FF03C0519525
:1015D00041955109E32E022F242FAE010E941C0BCE
:1015E000CE01DF91CF911F910F91EF900895BB270E
:1015F0004A3031F4992322F4BDE2909581959F4FB2
:101600000C94030BBB27FB015527AA27880F991FB2
:10161000AA1FA41710F0A41B83955051B9F7A05D21
:10162000AA3308F0A95DA193009779F7B111B1939E
:101630001192CB010C94530DA9E0B0E0E2E2FBE083
:101640000C94F70D6A01F22EB02E102FFBE3AF2E93
:10165000A01608F41BE31F5F012F27E0AE014F5FC8
:101660005F4F0E947B0CBC018981982F997091304B
:1016700009F43FC09BE2E1FC04C09E2D9170E0FCA8
:101680003AC05E2D5071E82FE87083FF46C084E0B9
:10169000911101C083E0EF2DE81B8F1508F0E0E009
:1016A000D6018E2F20E2552351F1992329F0D6013E
:1016B0009C93C60101966C0196012D5F3F4FE2FE9F
:1016C00024C08EE4D6018C9391E411969C931197DB
:1016D00012968C93D9018E2F90E281111BC0E20FDC
:1016E000F32FF11D10828EEF9FEF2996ECE00C9402
:1016F000130E9DE2C6CF90E2C4CF2D93815081118D
:10170000FCCFCE0ED11CE0E0D0CF8EE6D6018C937C
:1017100091E6DBCF9D938150E0CF482F447082FF4C
:101720003DC084E0911101C083E08F1510F4EF2DCE
:10173000E81BD6018E2F20E2552309F1992329F0C9
:10174000D6019C93C60101966C0196012D5F3F4F17
:10175000E2FE1BC089E4D6018C938EE411968C9333
:10176000119786E412968C93D9018E2F90E28823EC
:1017700009F4B5CF9D938150FACF2D9381508111FB
:10178000FCCFCE0ED11CE0E0D9CF89E6D6018C93F8
:101790008EE611968C93119786E6E4CF9B0177FF36
:1017A00002C030E020E0A1E0B0E0911102C0B0E062
:1017B000A0E0F9013196AE0FBF1F8B2C912CBB20FE
:1017C00009F461C05401EFEFAE1ABE0AAA0DBB1DA9
:1017D000FA161B0619F014F04F2D4A1B511188C040
:1017E000E3FC59C07601A42FB0E2A1114FC0C40E92
:1017F000D11C992309F45BC040E0D6011196F60193
:1018000090836D01552309F448C0012F060F9A817A
:10181000582F507184FF03C0913309F40150101602
:101820000CF047C0093008F008E0EEE2FE2E5B0144
:10183000A01AB10885019194819491082F3F320735
:1018400029F4D601FC92F60131966F0162177307F5
:1018500094F1021713077CF5DB01A21BB30BAA243A
:10186000A394B12CAC0EBD1EAA0DBB1D11968C917C
:1018700021503109D601119628153905F4F0F601E9
:1018800080836D01DBCFB12CA12CA0CFF701B193E8
:101890007F01A150AACF9111B0CFD601942F50E370
:1018A00002C05D9391509111FCCFC40ED11C40E059
:1018B000ACCF01E0BACF80E3DBCF6217730731F41E
:1018C000963388F4953311F4552369F0F60180833B
:1018D000FD01842F90E2811108C0A40FB11D1C925C
:1018E00090E080E002CF81E3F1CF91938150F3CF7C
:1018F000911183CF8ACF283008F027E03327DA010F
:10190000990F311D87FD916000966105710539F4CD
:1019100032602E5F3D9330E32A95E1F708959F3FB3
:1019200030F080387105610509F03C5F3C5F3D9304
:10193000913008F08068911DDF93CF931F930F9330
:10194000FF92EF92192F987F9695E92F969596958D
:10195000E90FFF27EE53FF4F99273327EE24FF248B
:10196000A701E70105900894079428F4360FE71EB5
:10197000F81E491F511D660F771F881F991F069477
:10198000A1F70590079428F4E70EF81E491F561F8B
:10199000C11D770F881F991F661F0694A1F7059038
:1019A000079428F4F80E491F561FC71FD11D880F32
:1019B000991F661F771F0694A1F70590079420F4DE
:1019C000490F561FC71FD81F990F661F771F881F03
:1019D0000694A9F784911095177041F0D695C79594
:1019E00057954795F794E7941A95C1F7E8E6F0E024
:1019F00068941590159135916591959105907FE2C8
:101A00007395E118F10A430B560BC90BD009C0F7C7
:101A1000E10CF11E431F561FC91FD01D7EF4703309
:101A200011F48A95E6CFE894015030F0080F0AF4DB
:101A30000027021708F4202F2395022F7A3328F06D
:101A400079E37D932A95E9F710C07D932A9589F66D
:101A5000069497956795379517951794E118F10AAD
:101A6000430B560BC90BD00998F023957E917395C3
:101A70007A3308F070E37C932013B8F77E9170619D
:101A80007D9330F0839571E37D9370E32A95E1F7C0
:101A90001124EF90FF900F911F91CF91DF91992723
:101AA00087FD90950895DC01FC01672F71917723E4
:101AB000E1F7329704C07C916D9370836291AE1709
:101AC000BF07C8F30895E89409C097FB3EF49095CA
:101AD0008095709561957F4F8F4F9F4F9923A9F007
:101AE000F92F96E9BB279395F69587957795679596
:101AF000B795F111F8CFFAF4BB0F11F460FF1BC0DA
:101B00006F5F7F4F8F4F9F4F16C0882311F096E96C
:101B100011C0772321F09EE8872F762F05C066231A
:101B200071F096E8862F70E060E02AF09A95660FD3
:101B3000771F881FDAF7880F9695879597F908958C
:101B400097F99F6780E870E060E008959FEF80EC70
:101B5000089500240A941616170618060906089513
:101B600000240A9412161306140605060895092E79
:101B70000394000C11F4882352F0BB0F40F4BF2BE8
:101B800011F460FF04C06F5F7F4F8F4F9F4F089528
:101B900057FD9058440F551F59F05F3F71F047951E
:101BA000880F97FB991F61F09F3F79F08795089503
:101BB000121613061406551FF2CF4695F1DF08C022
:101BC000161617061806991FF1CF8695710561053F
:101BD00008940895E894BB2766277727CB0197F9E7
:101BE00008952F923F924F925F926F927F928F92C1
:101BF0009F92AF92BF92CF92DF92EF92FF920F939C
:101C00001F93CF93DF93CDB7DEB7CA1BDB0B0FB6A5
:101C1000F894DEBF0FBECDBF09942A883988488862
:101C20005F846E847D848C849B84AA84B984C884F8
:101C3000DF80EE80FD800C811B81AA81B981CE0FEF
:101C4000D11D0FB6F894DEBF0FBECDBFED010895D4
:101C50000E943C0E0C94B70D0E94B00D58F00E94EB
:101C6000A90D40F029F45F3F29F00C94A00D51110B
:101C70000C94EB0D0C94A60D0E94C80D68F39923EB
:101C8000B1F3552391F3951B550BBB27AA27621778
:101C90007307840738F09F5F5F4F220F331F441F85
:101CA000AA1FA9F335D00E2E3AF0E0E832D09150B9
:101CB0005040E695001CCAF72BD0FE2F29D0660FA6
:101CC000771F881FBB1F261737074807AB07B0E8E9
:101CD00009F0BB0B802DBF01FF2793585F4F3AF0EF
:101CE0009E3F510578F00C94A00D0C94EB0D5F3FD6
:101CF000E4F3983ED4F3869577956795B795F79575
:101D00009F5FC9F7880F911D9695879597F908955C
:101D1000E1E0660F771F881FBB1F621773078407F8
:101D2000BA0720F0621B730B840BBA0BEE1F88F707
:101D3000E0950895EE0FFF1F0590F491E02D0994B2
:101D40000F931F93CF93DF938230910510F482E0BD
:101D500090E0E0917E02F0917F0230E020E0B0E080
:101D6000A0E0309799F42115310509F44AC0281BE9
:101D7000390B24303105D8F58A819B8161157105B5
:101D800089F1FB0193838283FE0111C0408151815F
:101D90000281138148175907E0F04817590799F451
:101DA000109761F012960C93129713961C9332962B
:101DB000CF01DF91CF911F910F91089500937E0283
:101DC00010937F02F4CF2115310551F042175307CC
:101DD00038F0A901DB019A01BD01DF01F801C1CF93
:101DE000EF01F9CF90937F0280937E02CDCFFE0169
:101DF000E20FF31F81939193225031093983288395
:101E0000D7CF20917C0230917D02232B41F4209189
:101E100006013091070130937D0220937C022091CE
:101E20000401309105012115310541F42DB73EB76C
:101E30004091080150910901241B350BE0917C026F
:101E4000F0917D02E217F307A0F42E1B3F0B281739
:101E5000390778F0AC014E5F5F4F2417350748F023
:101E60004E0F5F1F50937D0240937C0281939193AC
:101E70009FCFF0E0E0E09CCFCF93DF930097E9F0B5
:101E8000FC01329713821282A0917E02B0917F02F0
:101E9000ED0130E020E01097A1F420813181820F24
:101EA000931F20917C0230917D022817390709F099
:101EB00061C0F0937D02E0937C02DF91CF910895A1
:101EC000EA01CE17DF07E8F54A815B819E014115E3
:101ED0005105B1F7E901FB83EA8349915991C40F98
:101EE000D51FEC17FD0761F4808191810296840F64
:101EF000951FE90199838883828193819B838A83DB
:101F0000F0E0E0E012968D919C9113970097B9F55F
:101F10002D913C911197CD010296820F931F209134
:101F20007C0230917D022817390739F6309751F538
:101F300010927F0210927E02B0937D02A0937C02E9
:101F4000BCCFD383C28340815181840F951FC817B2
:101F5000D90761F44E5F5F4F88819981480F591FFF
:101F6000518340838A819B8193838283211531052C
:101F700009F0B0CFF0937F02E0937E029ECFFD0187
:101F8000DC01C0CF13821282D7CFB0E0A0E0EBEC2F
:101F9000FFE00C94F30D8C01009751F4CB010E94EB
:101FA000A00E8C01C801CDB7DEB7E0E10C940F0E96
:101FB000FC01E60FF71F9C0122503109E217F307DD
:101FC00008F49DC0D901CD91DC911197C617D707B0
:101FD00098F0C530D10530F3CE01049786179707E6
:101FE00008F3C61BD70B2297C193D1936D937C93B3
:101FF000CF010E943C0FD6CF5B01AC1ABD0A4C0149
:102000008C0E9D1EA0917E02B0917F02512C412C1E
:10201000F12CE12C109731F580917C0290917D029A
:102020008815990509F05CC04616570608F058C097
:102030008091040190910501009741F48DB79EB7FE
:102040004091080150910901841B950BE817F9078D
:1020500008F055C0F0937D02E0937C02F901718392
:102060006083A0CF8D919C91119712966C901297DE
:1020700013967C901397A815B90559F56C0142E0A9
:10208000C40ED11CCA14DB0420F1AC014A195B094F
:10209000DA011296159780F0628273825183408331
:1020A000D9016D937C93E114F10471F0D70113967B
:1020B000FC93EE93129776CF22968C0F9D1FF90119
:1020C00091838083F301EFCFF0937F02E0937E0250
:1020D00069CF4816590608F42C017D01D3019ACF27
:1020E000CB010E94A00E7C01009749F0AE01B8011F
:1020F0000E948210C8010E943C0F870153CF10E05C
:1021000000E050CFFB01DC0102C001900D92415074
:102110005040D8F70895FB01DC0101900D9200209A
:08212000E1F70895F894FFCFE8
:102128007402740200008002800000004000140065
:1021380054000000000060033303760409032C03F5
:1021480019030A03000000000F0575027604A202B5
:10215800537562647563746F7220656E20636F7562
:1021680072730064652064656D6172726167652EC3
:102178000050617469656E74657A2E2E2E00466172
:10218800697420706172205448304C334600506F97
:10219800736974696F6E006F6C64203A2000206365
:1021A8006D006E6577203A200020636C69636B00D0
:00000001FF
